0                F.K032001K 2020042500000001                                                                                                                                                                                                                                                                                                                                                                                                                                                                                                                                                                                                                                                                                                                                                                                                                                                                                                                                                                                                                                                                                                                                                                                                   F
1F 000000000001911BANCO DO BRASIL SA                                                                                                                                    DIRECAO GERAL                                          022005110300                                                                                                                                2038196608016422100QUADRA              SAUN QUADRA 5 LOTE B TORRES I, II E III                     SN    ANDAR 1 A 16              SALA  101 A 1601          ANDAR 1 A 16              SALA  101 A 1601          ANDAR 1 A 16              SALA  101 A 1601          ASA NORTE                                         70040912DF9701BRASILIA                                          61  34939002            61  34931040SECEX@BB.COM.BR                                                                                                    10067000000000000500000000000000000N                                                                                                                                                                                                                                                                                  F
2F 000000000001912MARCIO HAMILTON FERREIRA                                                                                                                              000***923641**100000020101117                                                                         ***000000**CPF INVALIDO                                                00                                                                                                                                                                                                                                                                                                                                                                                                                                                                                                                                                                                                                                                                                                                                                                                                                                                                                        F
2F 000000000001912NILSON MARTINIANO MOREIRA                                                                                                                             000***491386**100000020101117                                                                         ***000000**CPF INVALIDO                                                00                                                                                                                                                                                                                                                                                                                                                                                                                                                                                                                                                                                                                                                                                                                                                                                                                                                                                        F
2F 000000000001912WALTER MALIENI JUNIOR                                                                                                                                 000***718468**100000020101117                                                                         ***000000**CPF INVALIDO                                                00                                                                                                                                                                                                                                                                                                                                                                                                                                                                                                                                                                                                                                                                                                                                                                                                                                                                                        F
2F 000000000001912CARLOS ALBERTO ARAUJO NETTO                                                                                                                           000***415907**100000020120327                                                                         ***000000**CPF INVALIDO                                                00                                                                                                                                                                                                                                                                                                                                                                                                                                                                                                                                                                                                                                                                                                                                                                                                                                                                                        F
2F 000000000001912ANTONIO MAURICIO MAURANO                                                                                                                              000***022878**100000020120327                                                                         ***000000**CPF INVALIDO                                                00                                                                                                                                                                                                                                                                                                                                                                                                                                                                                                                                                                                                                                                                                                                                                                                                                                                                                        F
2F 000000000001912MARCELO AUGUSTO DUTRA LABUTO                                                                                                                          000***238081**100000020120327                                                                         ***000000**CPF INVALIDO                                                00                                                                                                                                                                                                                                                                                                                                                                                                                                                                                                                                                                                                                                                                                                                                                                                                                                                                                        F
2F 000000000001912ROGERIO MAGNO PANCA                                                                                                                                   000***035618**100000020150528                                                                         ***000000**CPF INVALIDO                                                00                                                                                                                                                                                                                                                                                                                                                                                                                                                                                                                                                                                                                                                                                                                                                                                                                                                                                        F
2F 000000000001912SIMAO LUIZ KOVALSKI                                                                                                                                   000***714970**100000020150528                                                                         ***000000**CPF INVALIDO                                                00                                                                                                                                                                                                                                                                                                                                                                                                                                                                                                                                                                                                                                                                                                                                                                                                                                                                                        F
2F 000000000001912TARCISIO HUBNER                                                                                                                                       000***600309**100000020150528                                                                         ***000000**CPF INVALIDO                                                00                                                                                                                                                                                                                                                                                                                                                                                                                                                                                                                                                                                                                                                                                                                                                                                                                                                                                        F
2F 000000000001912EDUARDO CESAR PASA                                                                                                                                    000***035920**100000020150630                                                                         ***000000**CPF INVALIDO                                                00                                                                                                                                                                                                                                                                                                                                                                                                                                                                                                                                                                                                                                                                                                                                                                                                                                                                                        F
2F 000000000001912MARCIO LUIZ MORAL                                                                                                                                     000***859038**100000020150901                                                                         ***000000**CPF INVALIDO                                                00                                                                                                                                                                                                                                                                                                                                                                                                                                                                                                                                                                                                                                                                                                                                                                                                                                                                                        F
2F 000000000001912JOSE EDUARDO MOREIRA BERGO                                                                                                                            000***045721**100000020161206                                                                         ***000000**CPF INVALIDO                                                00                                                                                                                                                                                                                                                                                                                                                                                                                                                                                                                                                                                                                                                                                                                                                                                                                                                                                        F
2F 000000000001912ALEXANDRE ALVES DE SOUZA                                                                                                                              000***093057**100000020161206                                                                         ***000000**CPF INVALIDO                                                00                                                                                                                                                                                                                                                                                                                                                                                                                                                                                                                                                                                                                                                                                                                                                                                                                                                                                        F
2F 000000000001912CICERO PRZENDSIUK                                                                                                                                     000***435159**100000020161206                                                                         ***000000**CPF INVALIDO                                                00                                                                                                                                                                                                                                                                                                                                                                                                                                                                                                                                                                                                                                                                                                                                                                                                                                                                                        F
2F 000000000001912EDSON ROGERIO DA COSTA                                                                                                                                000***309260**100000020161206                                                                         ***000000**CPF INVALIDO                                                00                                                                                                                                                                                                                                                                                                                                                                                                                                                                                                                                                                                                                                                                                                                                                                                                                                                                                        F
2F 000000000001912FABIANO MACANHAN FONTES                                                                                                                               000***816019**100000020161206                                                                         ***000000**CPF INVALIDO                                                00                                                                                                                                                                                                                                                                                                                                                                                                                                                                                                                                                                                                                                                                                                                                                                                                                                                                                        F
2F 000000000001912FERNANDO FLORENCIO CAMPOS                                                                                                                             000***755588**100000020161206                                                                         ***000000**CPF INVALIDO                                                00                                                                                                                                                                                                                                                                                                                                                                                                                                                                                                                                                                                                                                                                                                                                                                                                                                                                                        F
2F 000000000001912GUSTAVO DE SOUZA FOSSE                                                                                                                                000***160007**100000020161206                                                                         ***000000**CPF INVALIDO                                                00                                                                                                                                                                                                                                                                                                                                                                                                                                                                                                                                                                                                                                                                                                                                                                                                                                                                                        F
2F 000000000001912MARCO TULIO DE OLIVEIRA MENDONCA                                                                                                                      000***403336**100000020161206                                                                         ***000000**CPF INVALIDO                                                00                                                                                                                                                                                                                                                                                                                                                                                                                                                                                                                                                                                                                                                                                                                                                                                                                                                                                        F
2F 000000000001912MARVIO MELO FREITAS                                                                                                                                   000***983941**100000020161206                                                                         ***000000**CPF INVALIDO                                                00                                                                                                                                                                                                                                                                                                                                                                                                                                                                                                                                                                                                                                                                                                                                                                                                                                                                                        F
2F 000000000001912REINALDO KAZUFUMI YOKOYAMA                                                                                                                            000***390059**100000020161206                                                                         ***000000**CPF INVALIDO                                                00                                                                                                                                                                                                                                                                                                                                                                                                                                                                                                                                                                                                                                                                                                                                                                                                                                                                                        F
2F 000000000001912JOSE CAETANO DE ANDRADE MINCHILLO                                                                                                                     000***907166**100000020160621                                                                         ***000000**CPF INVALIDO                                                00                                                                                                                                                                                                                                                                                                                                                                                                                                                                                                                                                                                                                                                                                                                                                                                                                                                                                        F
2F 000000000001912CARLOS RENATO BONETTI                                                                                                                                 000***198248**100000020160429                                                                         ***000000**CPF INVALIDO                                                00                                                                                                                                                                                                                                                                                                                                                                                                                                                                                                                                                                                                                                                                                                                                                                                                                                                                                        F
2F 000000000001912JOSE EDUARDO PEREIRA FILHO                                                                                                                            000***916073**100000020170217                                                                         ***000000**CPF INVALIDO                                                00                                                                                                                                                                                                                                                                                                                                                                                                                                                                                                                                                                                                                                                                                                                                                                                                                                                                                        F
2F 000000000001912MARCO TULIO MORAES DA COSTA                                                                                                                           000***677786**100000020170105                                                                         ***000000**CPF INVALIDO                                                00                                                                                                                                                                                                                                                                                                                                                                                                                                                                                                                                                                                                                                                                                                                                                                                                                                                                                        F
2F 000000000001912JOAO PINTO RABELO JUNIOR                                                                                                                              000***347521**100000020160119                                                                         ***000000**CPF INVALIDO                                                00                                                                                                                                                                                                                                                                                                                                                                                                                                                                                                                                                                                                                                                                                                                                                                                                                                                                                        F
2F 000000000001912CARLOS HAMILTON VASCONCELOS ARAUJO                                                                                                                    000***794793**100000020170105                                                                         ***000000**CPF INVALIDO                                                00                                                                                                                                                                                                                                                                                                                                                                                                                                                                                                                                                                                                                                                                                                                                                                                                                                                                                        F
2F 000000000001912LUCINEIA POSSAR                                                                                                                                       000***309199**100000020171128                                                                         ***000000**CPF INVALIDO                                                00                                                                                                                                                                                                                                                                                                                                                                                                                                                                                                                                                                                                                                                                                                                                                                                                                                                                                        F
2F 000000000001912JOSE RICARDO FAGONDE FORNI                                                                                                                            000***261501**100000020180410                                                                         ***000000**CPF INVALIDO                                                00                                                                                                                                                                                                                                                                                                                                                                                                                                                                                                                                                                                                                                                                                                                                                                                                                                                                                        F
2F 000000000001912MARCOS RENATO COLTRI                                                                                                                                  000***653918**100000020180410                                                                         ***000000**CPF INVALIDO                                                00                                                                                                                                                                                                                                                                                                                                                                                                                                                                                                                                                                                                                                                                                                                                                                                                                                                                                        F
2F 000000000001912CARLA NESI                                                                                                                                            000***295868**100000020180412                                                                         ***000000**CPF INVALIDO                                                00                                                                                                                                                                                                                                                                                                                                                                                                                                                                                                                                                                                                                                                                                                                                                                                                                                                                                        F
2F 000000000001912BERNARDO DE AZEVEDO SILVA ROTHE                                                                                                                       000***890627**100000020180418                                                                         ***000000**CPF INVALIDO                                                00                                                                                                                                                                                                                                                                                                                                                                                                                                                                                                                                                                                                                                                                                                                                                                                                                                                                                        F
2F 000000000001912ANTONIO GUSTAVO MATOS DO VALE                                                                                                                         000***370266**100000020170614                                                                         ***000000**CPF INVALIDO                                                00                                                                                                                                                                                                                                                                                                                                                                                                                                                                                                                                                                                                                                                                                                                                                                                                                                                                                        F
2F 000000000001912LUIZ CLAUDIO BATISTA                                                                                                                                  000***662506**100000020190423                                                                         ***000000**CPF INVALIDO                                                00                                                                                                                                                                                                                                                                                                                                                                                                                                                                                                                                                                                                                                                                                                                                                                                                                                                                                        F
2F 000000000001912JOSE AVELAR MATIAS LOPES                                                                                                                              000***213833**100000020190423                                                                         ***000000**CPF INVALIDO                                                00                                                                                                                                                                                                                                                                                                                                                                                                                                                                                                                                                                                                                                                                                                                                                                                                                                                                                        F
2F 000000000001912ANA PAULA TEIXEIRA DE SOUSA                                                                                                                           000***875581**100000020190423                                                                         ***000000**CPF INVALIDO                                                00                                                                                                                                                                                                                                                                                                                                                                                                                                                                                                                                                                                                                                                                                                                                                                                                                                                                                        F
2F 000000000001912DELANO VALENTIM DE ANDRADE                                                                                                                            000***760516**100000020190423                                                                         ***000000**CPF INVALIDO                                                00                                                                                                                                                                                                                                                                                                                                                                                                                                                                                                                                                                                                                                                                                                                                                                                                                                                                                        F
2F 000000000001912GERSON EDUARDO DE OLIVEIRA                                                                                                                            000***431620**100000020190423                                                                         ***000000**CPF INVALIDO                                                00                                                                                                                                                                                                                                                                                                                                                                                                                                                                                                                                                                                                                                                                                                                                                                                                                                                                                        F
2F 000000000001912RUBEM DE FREITAS NOVAES                                                                                                                               000***470447**160000020190315                                                                         ***000000**CPF INVALIDO                                                00                                                                                                                                                                                                                                                                                                                                                                                                                                                                                                                                                                                                                                                                                                                                                                                                                                                                                        F
2F 000000000001912PAULA LUCIANA VIANA DA SILVA LIMA MAZANEK                                                                                                             000***389461**100000020190308                                                                         ***000000**CPF INVALIDO                                                00                                                                                                                                                                                                                                                                                                                                                                                                                                                                                                                                                                                                                                                                                                                                                                                                                                                                                        F
2F 000000000001912CAMILO BUZZI                                                                                                                                          000***569178**100000020190403                                                                         ***000000**CPF INVALIDO                                                00                                                                                                                                                                                                                                                                                                                                                                                                                                                                                                                                                                                                                                                                                                                                                                                                                                                                                        F
2F 000000000001912CARLOS MOTTA DOS SANTOS                                                                                                                               000***876287**100000020190403                                                                         ***000000**CPF INVALIDO                                                00                                                                                                                                                                                                                                                                                                                                                                                                                                                                                                                                                                                                                                                                                                                                                                                                                                                                                        F
2F 000000000001912FABIO AUGUSTO CANTIZANI BARBOSA                                                                                                                       000***379967**100000020190403                                                                         ***000000**CPF INVALIDO                                                00                                                                                                                                                                                                                                                                                                                                                                                                                                                                                                                                                                                                                                                                                                                                                                                                                                                                                        F
2F 000000000001912IVANDRE MONTIEL DA SILVA                                                                                                                              000***975660**100000020190403                                                                         ***000000**CPF INVALIDO                                                00                                                                                                                                                                                                                                                                                                                                                                                                                                                                                                                                                                                                                                                                                                                                                                                                                                                                                        F
2F 000000000001912RONALDO SIMON FERREIRA                                                                                                                                000***685018**100000020190729                                                                         ***000000**CPF INVALIDO                                                00                                                                                                                                                                                                                                                                                                                                                                                                                                                                                                                                                                                                                                                                                                                                                                                                                                                                                        F
2F 000000000001912ENIO MATHIAS FERREIRA                                                                                                                                 000***078106**100000020181107                                                                         ***000000**CPF INVALIDO                                                00                                                                                                                                                                                                                                                                                                                                                                                                                                                                                                                                                                                                                                                                                                                                                                                                                                                                                        F
2F 000000000001912DANIEL ANDRE STIELER                                                                                                                                  000***145110**100000020190910                                                                         ***000000**CPF INVALIDO                                                00                                                                                                                                                                                                                                                                                                                                                                                                                                                                                                                                                                                                                                                                                                                                                                                                                                                                                        F
2F 000000000001912MAURICIO NOGUEIRA                                                                                                                                     000***894537**100000020191209                                                                         ***000000**CPF INVALIDO                                                00                                                                                                                                                                                                                                                                                                                                                                                                                                                                                                                                                                                                                                                                                                                                                                                                                                                                                        F
2F 000000000001912THOMPSON SOARES PEREIRA CESAR                                                                                                                         000***503187**100000020191209                                                                         ***000000**CPF INVALIDO                                                00                                                                                                                                                                                                                                                                                                                                                                                                                                                                                                                                                                                                                                                                                                                                                                                                                                                                                        F
2F 000000000001912ERIK DA COSTA BREYER                                                                                                                                  000***093217**100000020191209                                                                         ***000000**CPF INVALIDO                                                00                                                                                                                                                                                                                                                                                                                                                                                                                                                                                                                                                                                                                                                                                                                                                                                                                                                                                        F
2F 000000000001912WALDERY RODRIGUES JUNIOR                                                                                                                              000***025913**080000020200312                                                                         ***000000**CPF INVALIDO                                                00                                                                                                                                                                                                                                                                                                                                                                                                                                                                                                                                                                                                                                                                                                                                                                                                                                                                                        F
2F 000000000001912DEBORA CRISTINA FONSECA                                                                                                                               000***314628**080000020200312                                                                         ***000000**CPF INVALIDO                                                00                                                                                                                                                                                                                                                                                                                                                                                                                                                                                                                                                                                                                                                                                                                                                                                                                                                                                        F
2F 000000000001912LUIZ SERAFIM SPINOLA SANTOS                                                                                                                           000***068627**080000020200312                                                                         ***000000**CPF INVALIDO                                                00                                                                                                                                                                                                                                                                                                                                                                                                                                                                                                                                                                                                                                                                                                                                                                                                                                                                                        F
2F 000000000001912PAULO ROBERTO EVANGELISTA DE LIMA                                                                                                                     000***512661**080000020200312                                                                         ***000000**CPF INVALIDO                                                00                                                                                                                                                                                                                                                                                                                                                                                                                                                                                                                                                                                                                                                                                                                                                                                                                                                                                        F
6F 00000000000191649999900000000000000000000000000000000000000000000000000000000000000000000000000000000000000000000000000000000000000000000000000000000000000000000000000000000000000000000000000000000000000000000000000000000000000000000000000000000000000000000000000000000000000000000000000000000000000000000000000000000000000000000000000000000000000000000000000000000000000000000000000000000000000000000000000000000000000000000000000000000000000000000000000000000000000000000000000000000000000000000000000000000000000000000000000000000000000000000000000000000000000000000000000000000000000000000000000000000000000000000000000000000000000000000000000000000000000000000000000000000000000000000000000000000000000                                                                                                                                                                                                                                                                                                                                                                                                                                                                                                         F
1F 000000000002722BANCO DO BRASIL SA                                                                                                                                    MANAUS (AM)                                            022005110300                                                                                                                                2038197608136421200RUA                 GUILHERME MOREIRA                                           315                                                                                                                                                               CENTRO                                            69005300AM0255MANAUS                                                                                                                                                                                                   10000000000000000500000000000000000                        00000000                                                                                                                                                                                                                                                   F
2F 000000000002722WALDERY RODRIGUES JUNIOR                                                                                                                              000***025913**080000020200312                                                                         ***000000**CPF INVALIDO                                                00                                                                                                                                                                                                                                                                                                                                                                                                                                                                                                                                                                                                                                                                                                                                                                                                                                                                                        F
2F 000000000002722ERIK DA COSTA BREYER                                                                                                                                  000***093217**100000020191209                                                                         ***000000**CPF INVALIDO                                                00                                                                                                                                                                                                                                                                                                                                                                                                                                                                                                                                                                                                                                                                                                                                                                                                                                                                                        F
2F 000000000002722THOMPSON SOARES PEREIRA CESAR                                                                                                                         000***503187**100000020191209                                                                         ***000000**CPF INVALIDO                                                00                                                                                                                                                                                                                                                                                                                                                                                                                                                                                                                                                                                                                                                                                                                                                                                                                                                                                        F
2F 000000000002722MAURICIO NOGUEIRA                                                                                                                                     000***894537**100000020191209                                                                         ***000000**CPF INVALIDO                                                00                                                                                                                                                                                                                                                                                                                                                                                                                                                                                                                                                                                                                                                                                                                                                                                                                                                                                        F
2F 000000000002722DANIEL ANDRE STIELER                                                                                                                                  000***145110**100000020190910                                                                         ***000000**CPF INVALIDO                                                00                                                                                                                                                                                                                                                                                                                                                                                                                                                                                                                                                                                                                                                                                                                                                                                                                                                                                        F
2F 000000000002722ENIO MATHIAS FERREIRA                                                                                                                                 000***078106**100000020181107                                                                         ***000000**CPF INVALIDO                                                00                                                                                                                                                                                                                                                                                                                                                                                                                                                                                                                                                                                                                                                                                                                                                                                                                                                                                        F
2F 000000000002722RONALDO SIMON FERREIRA                                                                                                                                000***685018**100000020190729                                                                         ***000000**CPF INVALIDO                                                00                                                                                                                                                                                                                                                                                                                                                                                                                                                                                                                                                                                                                                                                                                                                                                                                                                                                                        F
2F 000000000002722IVANDRE MONTIEL DA SILVA                                                                                                                              000***975660**100000020190403                                                                         ***000000**CPF INVALIDO                                                00                                                                                                                                                                                                                                                                                                                                                                                                                                                                                                                                                                                                                                                                                                                                                                                                                                                                                        F
2F 000000000002722FABIO AUGUSTO CANTIZANI BARBOSA                                                                                                                       000***379967**100000020190403                                                                         ***000000**CPF INVALIDO                                                00                                                                                                                                                                                                                                                                                                                                                                                                                                                                                                                                                                                                                                                                                                                                                                                                                                                                                        F
2F 000000000002722CARLOS MOTTA DOS SANTOS                                                                                                                               000***876287**100000020190403                                                                         ***000000**CPF INVALIDO                                                00                                                                                                                                                                                                                                                                                                                                                                                                                                                                                                                                                                                                                                                                                                                                                                                                                                                                                        F
2F 000000000002722CAMILO BUZZI                                                                                                                                          000***569178**100000020190403                                                                         ***000000**CPF INVALIDO                                                00                                                                                                                                                                                                                                                                                                                                                                                                                                                                                                                                                                                                                                                                                                                                                                                                                                                                                        F
2F 000000000002722PAULA LUCIANA VIANA DA SILVA LIMA MAZANEK                                                                                                             000***389461**100000020190308                                                                         ***000000**CPF INVALIDO                                                00                                                                                                                                                                                                                                                                                                                                                                                                                                                                                                                                                                                                                                                                                                                                                                                                                                                                                        F
2F 000000000002722RUBEM DE FREITAS NOVAES                                                                                                                               000***470447**160000020190315                                                                         ***000000**CPF INVALIDO                                                00                                                                                                                                                                                                                                                                                                                                                                                                                                                                                                                                                                                                                                                                                                                                                                                                                                                                                        F
2F 000000000002722GERSON EDUARDO DE OLIVEIRA                                                                                                                            000***431620**100000020190423                                                                         ***000000**CPF INVALIDO                                                00                                                                                                                                                                                                                                                                                                                                                                                                                                                                                                                                                                                                                                                                                                                                                                                                                                                                                        F
2F 000000000002722DELANO VALENTIM DE ANDRADE                                                                                                                            000***760516**100000020190423                                                                         ***000000**CPF INVALIDO                                                00                                                                                                                                                                                                                                                                                                                                                                                                                                                                                                                                                                                                                                                                                                                                                                                                                                                                                        F
2F 000000000002722ANA PAULA TEIXEIRA DE SOUSA                                                                                                                           000***875581**100000020190423                                                                         ***000000**CPF INVALIDO                                                00                                                                                                                                                                                                                                                                                                                                                                                                                                                                                                                                                                                                                                                                                                                                                                                                                                                                                        F
2F 000000000002722JOSE AVELAR MATIAS LOPES                                                                                                                              000***213833**100000020190423                                                                         ***000000**CPF INVALIDO                                                00                                                                                                                                                                                                                                                                                                                                                                                                                                                                                                                                                                                                                                                                                                                                                                                                                                                                                        F
2F 000000000002722LUIZ CLAUDIO BATISTA                                                                                                                                  000***662506**100000020190423                                                                         ***000000**CPF INVALIDO                                                00                                                                                                                                                                                                                                                                                                                                                                                                                                                                                                                                                                                                                                                                                                                                                                                                                                                                                        F
2F 000000000002722ANTONIO GUSTAVO MATOS DO VALE                                                                                                                         000***370266**100000020170614                                                                         ***000000**CPF INVALIDO                                                00                                                                                                                                                                                                                                                                                                                                                                                                                                                                                                                                                                                                                                                                                                                                                                                                                                                                                        F
2F 000000000002722BERNARDO DE AZEVEDO SILVA ROTHE                                                                                                                       000***890627**100000020180418                                                                         ***000000**CPF INVALIDO                                                00                                                                                                                                                                                                                                                                                                                                                                                                                                                                                                                                                                                                                                                                                                                                                                                                                                                                                        F
2F 000000000002722CARLA NESI                                                                                                                                            000***295868**100000020180412                                                                         ***000000**CPF INVALIDO                                                00                                                                                                                                                                                                                                                                                                                                                                                                                                                                                                                                                                                                                                                                                                                                                                                                                                                                                        F
2F 000000000002722MARCOS RENATO COLTRI                                                                                                                                  000***653918**100000020180410                                                                         ***000000**CPF INVALIDO                                                00                                                                                                                                                                                                                                                                                                                                                                                                                                                                                                                                                                                                                                                                                                                                                                                                                                                                                        F
2F 000000000002722JOSE RICARDO FAGONDE FORNI                                                                                                                            000***261501**100000020180410                                                                         ***000000**CPF INVALIDO                                                00                                                                                                                                                                                                                                                                                                                                                                                                                                                                                                                                                                                                                                                                                                                                                                                                                                                                                        F
2F 000000000002722LUCINEIA POSSAR                                                                                                                                       000***309199**100000020171128                                                                         ***000000**CPF INVALIDO                                                00                                                                                                                                                                                                                                                                                                                                                                                                                                                                                                                                                                                                                                                                                                                                                                                                                                                                                        F
2F 000000000002722CARLOS HAMILTON VASCONCELOS ARAUJO                                                                                                                    000***794793**100000020170105                                                                         ***000000**CPF INVALIDO                                                00                                                                                                                                                                                                                                                                                                                                                                                                                                                                                                                                                                                                                                                                                                                                                                                                                                                                                        F
